:1000000093C0ADC0ACC0ABC0AAC0A9C0A8C0A7C0B7
:10001000A6C0A5C0A4C0A3C0A2C0A1C089C89FC0DB
:100020009EC09DC09CC06E616E00696E66000040FF
:100030007A10F35A00A0724E18090010A5D4E800F7
:1000400000E87648170000E40B54020000CA9A3B0F
:10005000000000E1F5050000809698000000404295
:100060000F000000A0860100000010270000000023
:10007000E803000000006400000000000A00000027
:1000800000000100000000002C76D888DC674F08D3
:1000900023DFC1DFAE59E1B1B796E5E3E453C63AD9
:1000A000E651997696E8E6C28426EB898C9B62ED50
:1000B000407C6FFCEFBC9C9F40F2BAA56FA5F4900A
:1000C000055A2AF75C936B6CF9676DC11BFCE0E481
:1000D0000D47FEF520E6B500D0ED902E03009435D7
:1000E00077050080841E080000204E0A000000C82A
:1000F0000C333333330F986E12831141EF8D21147B
:10010000893BE65516CFFEE6DB18D1844B381BF74A
:100110007C1D901DA4BBE424203284725E228100E9
:10012000C9F124ECA1E53D2711241FBECFE5D4E0A1
:10013000DEBFCDBF11E0A0E6B0E0EEE3FFE102C01C
:1001400005900D92A032B107D9F721E0A0E2B1E00D
:1001500001C01D92A837B207E1F709D9EECE50CF02
:10016000A3E1B0E0E5EBF0E0F4CA7C011B016A0119
:10017000FC0117821682838181FF49C3BE016F5F34
:100180007F4F4B01F7019381F10193FD859193FF1F
:1001900081911F01882309F436C3853239F493FD18
:1001A000859193FF81911F01853231F4B70190E071
:1001B0000BDE56016501E6CF10E0512C20E0203225
:1001C000A0F48B3269F030F4803259F0833269F454
:1001D00020612CC08D3239F0803339F4216026C083
:1001E0002260246023C0286021C027FD27C030ED95
:1001F000380F3A3078F426FF06C0FAE01F9F300D22
:100200001124132F13C06AE0569E300D1124532E73
:1002100020620CC08E3221F426FDF5C2206406C097
:100220008C3611F4206802C0883641F4F10193FD48
:10023000859193FF81911F018111C1CF9BEB980F95
:10024000933018F42061805E06C09BE9980F9330CC
:1002500008F09AC12F7E26FF16E02F73722E853686
:1002600021F4F22FF0647F2E08C0863621F4622F2D
:100270006068762E02C01111115077FE07C01C3342
:1002800048F444244394410E27E00BC0183030F466
:10029000212F06C027E04CE3442E03C027E017E0DF
:1002A000412C560174E0A70EB11CF60160817181EA
:1002B00082819381042DA40199DC6C01098100FFE6
:1002C00002C003FF06C071FC07C072FC08C0612CAD
:1002D00008C03DE2632E05C02BE2622E02C090E210
:1002E000692E802F8C7081F1662011F084E001C0AE
:1002F00083E0851510F0512C0AC0581A73FC07C012
:10030000B70180E290E060DD5A94D1F7F4CF662027
:1003100021F0B701862D90E057DD03FD03C00AE20E
:1003200010E002C006E210E0F72DF0717F2EF80118
:100330008491882309F45EC271108052B70190E065
:1003400043DD0F5F1F4FF3CF77FE0FC04C0C04FF50
:1003500004C08A81813309F44A94141474F5F8E0D6
:10036000F41578F588E0482E2CC076FC2AC0812F41
:1003700090E08C159D059CF06CEFC6166FEFD606CD
:1003800074F0772D7068772E0AC0E2E0F0E0EC0F91
:10039000FD1FE10FF11D8081803319F411501111FF
:1003A000F4CF77FE0EC044244394410E812F90E099
:1003B000C816D9062CF41C1904C04424439401C067
:1003C00010E077FE07C01C141D043CF496012F5F5B
:1003D0003F4F05C025E030E002C021E030E066205C
:1003E00011F02F5F3F4F112331F0412F50E04F5F4D
:1003F0005F4F240F351F452D50E02417350714F4A7
:10040000521A01C0512C872D897041F4552031F0CA
:10041000B70180E290E0D8DC5A94F8CF662021F052
:10042000B701862D90E0D0DC73FC08C0552031F078
:10043000B70180E390E0C8DC5A94F8CF77FE5DC046
:100440009C2D8D2DD7FE02C090E080E0692E782E85
:1004500040E050E0C601841991099D878C87960180
:1004600026193709280D391D812F90E0EE27FF2727
:10047000E81BF90BFF87EE87FFEF6F167F0661F42D
:10048000B7018EE290E02B8B3A8B488B598B9CDC2A
:10049000598948893A892B89C614D70454F06C8548
:1004A0007D85661577052CF4F901E40FF51F818130
:1004B00001C080E371E0671A71084F5F5F4FEE85FE
:1004C000FF856E167F0664F0B70190E02B8B3A8BA8
:1004D000488B598B79DC2B893A8948895989CCCF4B
:1004E0006C147D0439F49A81963318F4953311F421
:1004F00004FF81E3B70190E045C08A81813309F0B0
:100500000F7EB70190E060DC111105C074FE16C0CB
:1005100085E490E015C0B7018EE290E055DC82E002
:1005200066246394680EF401E80FF11D8081B70121
:1005300090E04ADC115051F3862DF2CF85E690E031
:10054000B70142DCD7FC05C0C114D10439F404FF63
:1005500005C0D194C194D1088DE201C08BE2B701EE
:1005600090E032DC80E36AE0C616D1042CF08F5FA5
:10057000FAE0CF1AD108F7CFB70190E025DCB70138
:10058000C601C09621DC36C1833631F0833779F05D
:10059000833509F054C020C0560172E0A70EB11C8B
:1005A000F6018081898301E010E0640113C05601E7
:1005B000F2E0AF0EB11CF601C080D18026FF03C06F
:1005C000612F70E002C06FEF7FEFC6012B8BF1DB74
:1005D0008C012B892F7714C05601F2E0AF0EB11CAD
:1005E000F601C080D18026FF03C0612F70E002C0F9
:1005F0006FEF7FEFC6012B8BD1DB8C012B8920683D
:10060000722E23FD18C0852D90E00817190798F465
:10061000B70180E290E0D8DB5A94F5CFF60177FC81
:10062000859177FE81916F01B70190E0CDDB51108C
:100630005A94015011090115110581F7DBC0843668
:1006400011F0893649F5560127FF09C0F4E0AF0ED5
:10065000B11CF60160817181828193810AC0F2E050
:10066000AF0EB11CF60160817181882777FD8095FE
:10067000982F022F0F7697FF08C090958095709560
:1006800061957F4F8F4F9F4F00682AE030E0A401B3
:10069000F6DBC82EC8183DC0022F853721F40F7E27
:1006A0002AE030E01DC0097F8F3691F018F48835BC
:1006B00059F0A9C0803719F0883711F0A4C0006143
:1006C00004FF09C0046007C024FF08C0066006C01C
:1006D00028E030E005C020E130E002C020E132E057
:1006E000560107FF09C0F4E0AF0EB11CF6016081AE
:1006F00071818281938108C0F2E0AF0EB11CF601D6
:100700006081718180E090E0A401B9DBC82EC81837
:100710000F7706FF0BC0202F2E7FC11650F404FF69
:100720000AC002FD08C0202F2E7E05C0DC2C202F21
:1007300003C0DC2C01C0D12E24FF0DC0FE01EC0D46
:10074000F11D8081803311F4297E09C022FF06C08B
:10075000D394D39404C0822F867809F0D39423FDD8
:1007600012C020FF06C01C2DD51418F4150D1D193C
:10077000D52CD51460F4B70180E290E02B8B24DBFC
:10078000D3942B89F6CFD51410F45D1801C0512CE9
:1007900024FF11C0B70180E390E02B8B15DB2B8980
:1007A00022FF16C021FF03C088E590E002C088E761
:1007B00090E0B7010CC0822F867851F021FD02C075
:1007C00080E201C08BE227FD8DE2B70190E0FCDA08
:1007D000C11630F4B70180E390E0F6DA1150F8CF9B
:1007E000CA94F401EC0DF11D8081B70190E0ECDAC0
:1007F000C110F6CF552009F4DDCCB70180E290E0BE
:10080000E3DA5A94F7CFF7018681978102C08FEF20
:100810009FEF6396E2E1B9C7DC01ED91FC9111977E
:10082000408121E030E016960C9002C0220F331F69
:100830000A94E2F72095242320830895DC01ED91AA
:10084000FC911197408121E030E016960C9002C097
:10085000220F331F0A94E2F7422B40830895CF936F
:10086000DF93EC01EBDFEC81FD81208181E090E002
:100870000E8002C0880F991F0A94E2F780958223A8
:1008800080838FE797E00197F1F700C00000CE0169
:10089000C3DFE7E1F1E03197F1F700C00000EA8142
:1008A000FB81808121E030E00E8002C0220F331FE7
:1008B0000A94E2F78223E7E6F6E03197F1F700C009
:1008C0000000DF91CF9108950F931F93CF93DF9393
:1008D0001F92CDB7DEB78C01DC011496ED91FC912F
:1008E0001597208181E090E016960C9002C0880F49
:1008F000991F0A94E2F7809582238083C801698357
:100900009DDFB5E0BA95F1F700006981662311F02B
:10091000C80182DFEFEEF0E03197F1F700C0000090
:10092000C8010F90DF91CF911F910F9175CFCF9399
:10093000DF93EC01EC81FD81208181E090E00E806D
:1009400002C0880F991F0A94E2F780958223808362
:10095000CE0174DF85E08A95F1F70000CE015CDFFF
:100960009AE49A95F1F700C0EA81FB81208181E049
:1009700090E00E8002C0880F991F0A94E2F72823A6
:1009800081E009F480E090EF9A95F1F7DF91CF9143
:100990000895FF920F931F93CF93DF938C01C0E0D4
:1009A000D0E0F12CC801C3DF0C2E01C0880F0A94DF
:1009B000EAF78F29F82E2196C830D10599F7DF91F3
:1009C000CF911F910F91FF900895FF920F931F9366
:1009D000CF93DF938C01F62EC8E0D0E06F2D6170CD
:1009E000C80172DFF69421972097C1F7DF91CF916C
:1009F0001F910F91FF900895CF93DF93EC012FDFAC
:100A0000811118C06CECCE01E0DF6EE4CE01DDDFB9
:100A100060E0CE01DADF60E0CE01D7DF6FE3CE0128
:100A2000D4DFCE011CDF21E090E0811101C020E085
:100A3000822F02C081E090E0DF91CF910895FC0108
:100A4000758364834683CB010197918380836250D1
:100A500071097383628381E08783CF01CDCFAC01BD
:100A6000FC0180E070E09CE89F01241B350B2617F9
:100A70003707A4F42191822728E030E0A82FB0E0C6
:100A8000B595A79580FF03C08A2F892701C08A2FBB
:100A9000215031092115310589F7E6CF08958F924C
:100AA0009F92AF92BF92CF92DF92EF92FF920F93FD
:100AB0001F93CF93DF93CDB7DEB729970FB6F89486
:100AC000DEBF0FBECDBF8C017B01C9DE882319F0CC
:100AD00081E090E051C06CECC80177DF64E4C801AC
:100AE00074DFC801BCDE8111F3CF6CECC8016DDF8F
:100AF0006EEBC8016ADFCE0101966C0189E0F60158
:100B000011928A95E9F756014E01FAE08F0E911C79
:100B1000C8013FDFF50181935F01E815F905C1F7D1
:100B200068E0C6019CDF99858913D2CF6A8170E0A5
:100B3000762F66278981680F711D882777FD80953C
:100B4000982F3DD720E030E040E85DE3ECD7F70197
:100B50006083718382839383F8012781222341F08C
:100B600020E030E04AEA52E490D6882309F4B0CF7E
:100B7000F801178280E090E029960FB6F894DEBF66
:100B80000FBECDBFDF91CF911F910F91FF90EF90DE
:100B9000DF90CF90BF90AF909F908F900895CF92AD
:100BA000DF92EF92FF92CF93DF93EB019B012150F5
:100BB0003109283E3340D8F4FC017183608366B567
:100BC00077B580E090E0F9D66B017C01BE0180E052
:100BD00090E0F3D69B01AC01C701B601A4D720E099
:100BE00030E04AE754E455D6BCD67BBD6ABDDF9100
:100BF000CF91FF90EF90DF90CF9008951FBCB99AEE
:100C000020EA30E037BD26BD27EA30E0FC01318321
:100C1000208366B577B580E090E0CFD620E030E065
:100C200047E253E480D720E030E04AE754E431D68D
:100C300098D67BBD6ABD89E18EBD8FB582688FBDB8
:100C40000895FC01808191810895DC011E963C91FC
:100C50001E971296ED91FC911397208181E090E010
:100C6000032E01C0880F0A94EAF7822B808308952F
:100C7000DC011E963C911E971296ED91FC91139704
:100C8000208181E090E002C0880F991F3A95E2F739
:100C90008095909530E08223932380830895DC0132
:100CA0001F963C911F971496ED91FC91159720810A
:100CB00081E090E0032E01C0880F0A94EAF7822BAE
:100CC00080830895DC011F963C911F971496ED9147
:100CD000FC911597208181E090E002C0880F991F58
:100CE0003A95E2F78095909530E0822393238083B4
:100CF0000895CF93DF93EC01D2DF8AE18A95F1F773
:100D000000C0CE01DF91CF91DDCFCF92DF92EF9285
:100D1000FF921F93CF93DF93EC01162F8FE396E0A2
:100D20000197F1F700C00000CE01442311F08DDFE0
:100D300001C09EDFFE0182E090E061E070E06E01A4
:100D4000C80ED91ED6011E964C91E680F780D701B9
:100D50002C9130E0DB0102C0AA0FBB1F4A95E2F7DD
:100D6000AD014095509524233523D7012C9340E0C5
:100D700050E021E030E07C01B2E0EB1AF1084E15C2
:100D80005F052CF4220F331F4F5F5F4FF8CF229582
:100D9000207F212379F0D6011E962C91A681B78160
:100DA0004C917B0102C0EE0CFF1C2A95E2F79701E3
:100DB000242B2C93019632968630910509F0BFCFF3
:100DC0008FE891E00197F1F700C00000CE0191DFBC
:100DD000FE0182E090E061E070E06E01C80ED91E75
:100DE000D6011E964C91E680F780D7012C9130E019
:100DF000DB0102C0AA0FBB1F4A95E2F7AD01409587
:100E0000509524233523D7012C9340E050E021E076
:100E100030E07C01B2E0EB1AF1084E155F052CF4CE
:100E2000220F331F4F5F5F4FF8CF212379F0D60198
:100E30001E962C91A681B7814C917B0102C0EE0CCD
:100E4000FF1C2A95E2F79701242B2C9301963296EA
:100E50008630910511F68FE891E00197F1F700C017
:100E60000000CE01DF91CF911F91FF90EF90DF90B6
:100E7000CF903FCF40E049CF6F927F928F92AF9259
:100E8000BF92CF92EF92FF920F931F93CF93DF9376
:100E900000D000D0CDB7DEB73C0149830A83CB82B6
:100EA0008C824B895C898E899F89F301738362836D
:100EB00069816687358324832A812787F782E682C2
:100EC0002B81208BB186A0862C81218B5387428772
:100ED0002D89228B95878487888D838B80E090E095
:100EE00041E050E0D301A80FB91F1E962C91A281BA
:100EF000B3816E918A0102C0000F111F2A95E2F79B
:100F00009801262B2C93019632968630910551F745
:100F10001FEF26E781E0115020408040E1F700C03C
:100F2000000060E3C301A6DFC301E3DEEFE1FEE4FE
:100F30003197F1F700C0000060E3C3019BDFC301FC
:100F4000D8DE8FED91E00197F1F700C0000060E37B
:100F5000C30190DFC301CDDEEFEDF1E03197F1F792
:100F600000C0000068E2C30185DFC301C2DE68E0A3
:100F7000C30180DFC301BDDE61E0C3017BDFC301CC
:100F8000B8DE8FE39FE10197F1F700C0000066E053
:100F9000C30170DFC301ADDE6CE0C3016BDFC301D1
:100FA0000F900F900F900F90DF91CF911F910F91A5
:100FB000FF90EF90CF90BF90AF908F907F906F9009
:100FC00098CEEFEFE60FE33028F4F0E0E459FF4F5E
:100FD000408101C040E0262F30E0FC0131832083B6
:100FE00060E8640F47CF6A3051F4FC016081718181
:100FF0006330710514F060E001C06F5FE2CF41E043
:1010000084CE0F931F93CF93DF938C01EB016991F3
:10101000662319F0C801E7DFFACFDF91CF911F9166
:101020000F910895CF93DF93CDB7DEB7DA950FB662
:10103000F894DEBF0FBECDBF9E01275F3E4FC95F54
:10104000DE4F48815981C750D1406FEF70E0CE012B
:101050000196ECD6BE016F5F7F4FCB5FDE4F88817C
:101060009981C550D140CDDFD3950FB6F894DEBF3E
:101070000FBECDBFDF91CF910895CF93DF93EC01E9
:1010800062E0F8DE60E0CE01DF91CF919ACFFC0103
:10109000628373834583FB01229181E090E0042EFB
:1010A00001C0880F0A94EAF780958223808308950F
:1010B000DC011296ED91FC9113973297208130E07C
:1010C00015960C9002C0359527950A94E2F7822F69
:1010D00081700895FC01628373834583FB01229133
:1010E00081E090E0042E01C0880F0A94EAF7282BD3
:1010F00020830895DC0114966C9314971296ED9159
:10110000FC91139715963C91208181E090E0032E8D
:1011100001C0880F0A94EAF7662319F0282B208370
:1011200008958095822380830895FC018481089529
:101130001F920F920FB60F9211248F929F92AF922F
:10114000BF92CF92DF92EF92FF922F933F934F93F4
:101150005F936F937F938F939F93AF93BF93EF931F
:10116000FF9364B185B170E0782B80912B018111E0
:1011700023C080E090E021D420E030E040E85AE352
:10118000D2D4209168003091690040916A0050915A
:101190006B00C9D42FE535E24FE35EE37AD3609369
:1011A0002701709328018093290190932A0181E0FF
:1011B00080932B0184E02AC080912B01882339F190
:1011C00080E090E0FAD320E030E040E85AE3ABD48E
:1011D00027ED33E248ED52E4A6D425E83BEE4DE19D
:1011E00051E457D3209168003091690040916A0022
:1011F00050916B0098D460932301709324018093E5
:1012000025019093260110922B0185E087B98FED7F
:1012100086B9C0902701D0902801E0902901F09074
:101220002A018090600090906100A0906200B090D0
:101230006300609160007091610080916200909104
:10124000630020E030E040E05FE36DD49B01AC013F
:10125000C501B401B6D29B01AC01C701B6015FD490
:1012600018163CF48AE591E0ECDCBC0176956795B4
:101270002FC06091270170912801809129019091E0
:101280002A012091600030916100409162005091EC
:10129000630045D418163CF48AE591E0D2DCBC0129
:1012A0006150710948C020E030E04CE852E46091A0
:1012B0002C0170912D0180912E0190912F012FD43E
:1012C00018166CF48AE591E0BCDCBC016150710930
:1012D0008AE591E064DC81E0809322012FC0609177
:1012E0002301709124018091250190912601209184
:1012F00064003091650040916600509167000FD402
:10130000181654F2609123017091240180912501F7
:101310009091260120916400309165004091660013
:1013200050916700B2D287FF09C08AE591E089DC5D
:10133000BC016F5F7F4F8AE591E031DCFF91EF9157
:10134000BF91AF919F918F917F916F915F914F91DD
:101350003F912F91FF90EF90DF90CF90BF90AF9093
:101360009F908F900F900FBE0F901F901895CF9366
:10137000DF9300D000D0CDB7DEB745E062E370E088
:1013800084E591E0A7DE46E062E370E088E491E066
:10139000A1DE40E068E370E08EE491E09BDE8AE548
:1013A00091E02CDC40E065E370E082E491E06FDEE8
:1013B00041E065E370E08CE391E069DE42E065E3E3
:1013C00070E086E391E063DE43E065E370E080E394
:1013D00091E05DDE47E062E370E08CE591E02FDBB9
:1013E00015E01F931F9288E38F9382E08F931F92E3
:1013F00082E38F9394E0892E28E3A22EB12C33E070
:10140000C32E42E3E42EF12C03E028E330E044E075
:1014100062E370E084E691E02FDD10922B0117B9B2
:101420008FED86B978946BE770E084E691E0E9DDB2
:101430000F900F900F900F900F900F9000ED10E015
:1014400060916400709165008091660090916700E2
:10145000FF24F39420E030E040E451E460D3181618
:101460000CF0F12C6F2D84E591E044DEFF24F39421
:1014700020E030E048E452E460912C0170912D01AD
:1014800080912E0190912F014AD318160CF0F12C67
:101490006F2D88E491E02EDE809120019091210152
:1014A000892B09F078C019821A821B821C82F89459
:1014B000BE016F5F7F4F8CE591E0F1DA892B61F41B
:1014C00089819A81AB81BC8180932C0190932D01FD
:1014D000A0932E01B0932F01789484E691E0CDDDA6
:1014E0008AE591E0AEDB382E292E88E491E01DDEFE
:1014F000882319F02FE630E002C025E730E0409065
:101500002701509028016090290170902A01809055
:10151000230190902401A0902501B0902601C09055
:101520006000D0906100E0906200F0906300409114
:1015300064005091650060916600709167002F9281
:101540003F923F932F937F926F925F924F92BF9201
:10155000AF929F928F9280912F018F9380912E0155
:101560008F9380912D018F9380912C018F93FF9207
:10157000EF92DF92CF927F936F935F934F931F937E
:101580000F9384E691E09F938F934CDD0FB6F89410
:10159000DEBF0FBECDBF8091200190912101019649
:1015A000813127E2920728F4909321018093200152
:1015B00004C0109221011092200180912201882301
:1015C00099F061E08EE491E095DD8FEF96E721E000
:1015D000815090402040E1F700C0000060E08EE4C0
:1015E00091E088DD1092220182E491E061DD8111B9
:1015F00028C06091640070916500809166009091B0
:10160000670020E030E040ED51E43FD187FF15C096
:101610006091640070916500809166009091670010
:101620002DEC3CEC4CEC5DE3CCD06093640070930B
:1016300065008093660090936700109221011092DC
:1016400020018CE391E034DD811128C060916400B9
:101650007091650080916600909167002DEC3CECE4
:101660004CEC5DE35CD21816ACF4609164007091B0
:10167000650080916600909167002DEC3CEC4CEC8D
:101680005DE39ED060936400709365008093660074
:1016900090936700109221011092200186E391E05F
:1016A00007DD811128C06091600070916100809118
:1016B00062009091630020E030E040EA50E4E5D021
:1016C00087FF15C060916000709161008091620099
:1016D000909163002DEC3CEC4CEC5DE372D0609398
:1016E0006000709361008093620090936300109299
:1016F00021011092200180E391E0DADC8111A0CE7B
:10170000609160007091610080916200909163002F
:101710002DEC3CEC4CEC5DE302D21816ACF460917D
:1017200060007091610080916200909163002DECE7
:101730003CEC4CEC5DE344D060936000709361003E
:101740008093620090936300109221011092200117
:1017500077CE2F923F924F925F926F927F928F92AD
:101760009F92AF92BF92CF92DF92EF92FF920F9330
:101770001F93CF93DF93CDB7DEB7CA1BDB0B0FB63A
:10178000F894DEBF0FBECDBF09942A8839884888F7
:101790005F846E847D848C849B84AA84B984C8848D
:1017A000DF80EE80FD800C811B81AA81B981CE0F84
:1017B000D11D0FB6F894DEBF0FBECDBFED01089569
:1017C0005058BB27AA270ED070C161D130F066D126
:1017D00020F031F49F3F11F41EF456C10EF4E09551
:1017E000E7FB4CC1E92F72D180F3BA176207730788
:1017F0008407950718F071F49EF58AC10EF4E09500
:101800000B2EBA2FA02D0B01B90190010C01CA01BA
:10181000A0011124FF27591B99F0593F50F4503E65
:1018200068F11A16F040A22F232F342F4427585F57
:10183000F3CF469537952795A795F0405395C9F76F
:101840007EF41F16BA0B620B730B840BBAF0915027
:10185000A1F0FF0FBB1F661F771F881FC2F70EC0C6
:10186000BA0F621F731F841F48F487957795679599
:10187000B795F7959E3F08F0B3CF9395880F08F082
:101880009927EE0F979587950895D4D008F481E0B5
:1018900008950CD00AC102D140F0F9D030F021F403
:1018A0005F3F19F0EBC0511134C1EEC00FD198F376
:1018B0009923C9F35523B1F3951B550BBB27AA27D1
:1018C00062177307840738F09F5F5F4F220F331F43
:1018D000441FAA1FA9F333D00E2E3AF0E0E830D00F
:1018E00091505040E695001CCAF729D0FE2F27D012
:1018F000660F771F881FBB1F261737074807AB07E0
:10190000B0E809F0BB0B802DBF01FF2793585F4F54
:101910002AF09E3F510568F0B1C0FBC05F3FECF379
:10192000983EDCF3869577956795B795F7959F5F19
:10193000C9F7880F911D9695879597F90895E1E06D
:10194000660F771F881FBB1F621773078407BA07CC
:1019500020F0621B730B840BBA0BEE1F88F7E09527
:101960000895BCD088F09F5790F0B92F9927B751B0
:10197000A0F0D1F0660F771F881F991F1AF0BA9553
:10198000C9F712C0B13081F0C3D0B1E00895C0C032
:10199000672F782F8827B85F39F0B93FCCF3869549
:1019A00077956795B395D9F73EF4909580957095A6
:1019B00061957F4F8F4F9F4F0895E89409C097FB23
:1019C0003EF490958095709561957F4F8F4F9F4F16
:1019D0009923A9F0F92F96E9BB279395F69587955A
:1019E00077956795B795F111F8CFFAF4BB0F11F41D
:1019F00060FF1BC06F5F7F4F8F4F9F4F16C08823C4
:101A000011F096E911C0772321F09EE8872F762FF9
:101A100005C0662371F096E8862F70E060E02AF03A
:101A20009A95660F771F881FDAF7880F9695879526
:101A300097F90895990F0008550FAA0BE0E8FEEFFB
:101A400016161706E807F907C0F012161306E40782
:101A5000F50798F0621B730B840B950B39F40A267B
:101A600061F0232B242B252B21F408950A2609F459
:101A7000A140A6958FEF811D811D089597F99F675D
:101A800080E870E060E008959FEF80EC0895002406
:101A90000A941616170618060906089500240A94D3
:101AA00012161306140605060895092E0394000C59
:101AB00011F4882352F0BB0F40F4BF2B11F460FFE8
:101AC00004C06F5F7F4F8F4F9F4F089557FD905811
:101AD000440F551F59F05F3F71F04795880F97FBF2
:101AE000991F61F09F3F79F08795089512161306AC
:101AF0001406551FF2CF4695F1DF08C016161706DB
:101B00001806991FF1CF869571056105089408950F
:101B1000E894BB2766277727CB0197F908958ADFDA
:101B200008F48FEF08950BD0C0CFB1DF28F0B6DFF7
:101B300018F0952309F0A2CFA7CF1124EACFC6DF72
:101B4000A0F3959FD1F3950F50E0551F629FF001D0
:101B5000729FBB27F00DB11D639FAA27F00DB11D29
:101B6000AA1F649F6627B00DA11D661F829F2227B2
:101B7000B00DA11D621F739FB00DA11D621F839F39
:101B8000A00D611D221F749F3327A00D611D231F0F
:101B9000849F600D211D822F762F6A2F11249F575D
:101BA00050408AF0E1F088234AF0EE0FFF1FBB1F80
:101BB000661F771F881F91505040A9F79E3F51051F
:101BC00070F05CCFA6CF5F3FECF3983EDCF38695D8
:101BD00077956795B795F795E7959F5FC1F7FE2BCA
:101BE000880F911D9695879597F90895283008F0EC
:101BF00027E03327DA01990F311D87FD91600096A8
:101C00006105710539F432602E5F3D9330E32A950A
:101C1000E1F708959F3F30F080387105610509F0C4
:101C20003C5F3C5F3D93913008F08068911DDF93ED
:101C3000CF931F930F93FF92EF92192F987F969552
:101C4000E92F96959695E90FFF27E857FF4F9927BB
:101C50003327EE24FF24A701E70105900894079499
:101C600028F4360FE71EF81E491F511D660F771F17
:101C7000881F991F0694A1F70590079428F4E70E92
:101C8000F81E491F561FC11D770F881F991F661F19
:101C90000694A1F70590079428F4F80E491F561FE3
:101CA000C71FD11D880F991F661F771F0694A1F7C4
:101CB0000590079420F4490F561FC71FD81F990F8E
:101CC000661F771F881F0694A9F7849110951770D7
:101CD00041F0D695C79557954795F794E7941A958F
:101CE000C1F7EEE2F0E06894159015913591659199
:101CF000959105907FE27395E118F10A430B560B1D
:101D0000C90BD009C0F7E10CF11E431F561FC91FB4
:101D1000D01D7EF4703311F48A95E6CFE89401501B
:101D200030F0080F0AF40027021708F4202F23953B
:101D3000022F7A3328F079E37D932A95E9F710C0D2
:101D40007D932A9589F6069497956795379517950B
:101D50001794E118F10A430B560BC90BD00998F000
:101D600023957E9173957A3308F070E37C9320136A
:101D7000B8F77E9170617D9330F0839571E37D9328
:101D800070E32A95E1F71124EF90FF900F911F91D6
:101D9000CF91DF91992787FD90950895FC010590DB
:101DA000615070400110D8F7809590958E0F9F1F5D
:101DB0000895FC016150704001900110D8F78095A2
:101DC00090958E0F9F1F08950F931F93CF93DF93CE
:101DD000182F092FEB018B8181FD03C08FEF9FEF3F
:101DE00020C082FF10C04E815F812C813D8142174F
:101DF00053077CF4E881F9819F012F5F3F4F3983BE
:101E00002883108306C0E885F985812F0995892BE1
:101E100029F72E813F812F5F3F4F3F832E83812FF4
:101E2000902FDF91CF911F910F910895AEE0B0E018
:101E3000EBE1FFE09CCC8C01CA0146E04C831A83A5
:101E4000098377FF02C060E070E8615071097E830A
:101E50006D83A901BC01CE01019682D14D815E81C5
:101E600057FD0AC02F813885421753070CF49A0199
:101E7000F801E20FF31F10822E96E4E094CCFA01F1
:101E8000AA27283051F1203181F1E8946F936E7FB9
:101E90006E5F7F4F8F4F9F4FAF4FB1E03ED0B4E0AA
:101EA0003CD0670F781F891F9A1FA11D680F791FEB
:101EB0008A1F911DA11D6A0F711D811D911DA11DFC
:101EC00020D009F468943F912AE0269F112430190C
:101ED000305D3193DEF6CF010895462F4770405DA7
:101EE0004193B3E00FD0C9F7F6CF462F4F70405D56
:101EF0004A3318F0495D31FD4052419302D0A9F7B1
:101F0000EACFB4E0A6959795879577956795BA95AA
:101F1000C9F700976105710508959B01AC010A2E70
:101F200006945795479537952795BA95C9F7620F47
:0E1F3000731F841F951FA01D0895F894FFCF06
:101F3E000000803F0000A0400000A040401454204C
:101F4E002B46414E002020202020002A2A2A2A2A11
:101F5E002A2A2A2A2A2A2A2A2A2A2A2A2A2A2A0AF3
:101F6E002A4469676974616C2050777220537570CA
:101F7E00706C792A0A2A706F636B65746D6167697C
:101F8E00632E6E65742731352A0A2A2A2A2A2A2AAE
:101F9E002A2A2A2A2A2A2A2A2A2A2A2A2A2A0A00DD
:101FAE00202B5345543A2025352E326656202535A2
:101FBE002E3266410A25352E3166432025352E32C6
:101FCE0066562025352E3266410A257320202020A4
:101FDE0020202050574D3A2534640A3230313520B6
:101FEE00706F636B65746D616769632E6E657400E7
:00000001FF
